:020000040800F2
:1000000020300020DD010008C94E0008E944000846
:10001000C54E0008290D00082562000800000000F8
:100020000000000000000000000000004501000882
:10003000B90D00080000000089010008895A000875
:10004000F7010008F7010008F7010008F7010008B0
:10005000F7010008F7010008F7010008F7010008A0
:10006000F7010008F7010008F70100087D0D0008FE
:10007000F7010008F7010008F7010008F701000880
:10008000F7010008F7010008F7010008F701000870
:10009000F7010008F7010008F7010008F701000860
:1000A000F7010008F7010008F7010008F701000850
:1000B000F7010008F7010008F7010008F701000840
:1000C000F7010008F7010008F7010008F701000830
:1000D000F701000815620008F7010008F7010008A1
:1000E000BB0D000891530008F7010008F701000854
:1000F000F7010008F7010008F7010008F701000800
:10010000F7010008F7010008F7010008F7010008EF
:10011000F7010008F7010008F7010008495B000833
:10012000F7010008F7010008F7010008F7010008CF
:10013000DFF80CD000F0A0FC00480047A16C0008DC
:1001400020300020224B19680868B0E8F00F80F3D7
:100150000988BFF36F8F4FF0000080F311884EF0D5
:100160000D0E70470000000006480068006880F32C
:10017000088862B661B6BFF34F8FBFF36F8F00DFA1
:1001800000BF00BF08ED00E0EFF30980BFF36F8F01
:100190000F4B1A6820E9F00F106008B54FF05000BF
:1001A00080F31188BFF34F8FBFF36F8F07F070FF9D
:1001B0004FF0000080F31188BDE808401968086816
:1001C000B0E8F00F80F30988BFF36F8F704700BF6E
:1001D00078030020EFF30580704700000648804751
:1001E00006480047FEE7FEE7FEE7FEE7FEE7FEE71C
:1001F000FEE7FEE7FEE7FEE7455B00083101000889
:10020000202A04DB203A21FA02F00021704721FA6B
:1002100002F3D040C2F120029140084319467047D2
:1002200040EA01039B0703D009E008C9121F08C078
:10023000042AFAD203E011F8013B00F8013B521EF8
:10024000F9D27047D2B201E000F8012B491EFBD26F
:1002500070470022F6E710B513460A4604461946D1
:10026000FFF7F0FF204610BD30B505462A460B4685
:1002700012F8010B13F8014B08B1A042F8D01CB1E1
:10028000002802D06D1CF1E7284630BD10B50446A9
:1002900004E00B7800F8013B03B1491C521EF8D270
:1002A000204610BD10B5002200E0521C835C8C5C1F
:1002B000A34201D1002BF8D1D8B2E1B2401A10BD4F
:1002C000F0B480EA0102D40F4200B2EB410F02D237
:1002D0000246084611464A0042D0C30DDDB2C1F3C2
:1002E000C752AD1A202D35DAC1F3160141F40002D0
:1002F00004B15242C5F1200602FA06F12A41104427
:10030000B3EBD05F23D0C4B1012DA0EBC35009DC07
:10031000F0BC4FF0004202EAC352DBB200F500002D
:1003200000F0EFBA400000F1807000EBC350A0F184
:10033000807040EAD170490009E0490841EAC07183
:10034000A0EBC35000F50000400800EBC350F0BC28
:1003500000F0CEBA6142012202EB4101001BF6E738
:10036000F0BC704781F00041AAE780F00040A7E7A9
:1003700080EA010210B502F00043400022D04A009A
:100380001FD0010E01EB1261C0F35600C2F35602FA
:1003900040F4000042F40002A0FB022000047F3978
:1003A000140400D0401C50EA124001D44000491E01
:1003B000C2B20C0604EBD010401C4008802A02D0C8
:1003C00003E0002010BD20F00100002900DA002029
:1003D000184310BD30B480EA010202F0004530F04D
:1003E000004221F0004013D090B1C30DD40DC2F3F0
:1003F0001601C0F31600E41A41F4000140F40002B3
:100400007D34914201D3641C00E04900002C02DAE3
:1004100030BC002070474FF400000023914201D30C
:10042000891A034340084FEA4101F7D151B1914283
:1004300002D14FF0004105E002D24FF0010101E08E
:100440006FF0010103EBC450284430BC00F050BAF7
:100450002DE9FE4F804681EA0300C00F0C46009054
:1004600021F0004123F00045B8EB0200A94105D27C
:100470004046214690461C460B46024623F000406B
:10048000104347D0270DC7F30A00C3F30A51029067
:10049000401A019040286BDAC3F3130040F4801B2C
:1004A0000098924620B10023D2EB030A63EB0B0BBA
:1004B00001985946C0F14002504600F0F8F906464E
:1004C0000D4650465946019A00F000FA10EB08001C
:1004D0006141002487EA115284EAE7731A4340D04D
:1004E000009A62B3019A012A4FEA075215DC001BF9
:1004F00061EB02014FF0004202EA0752CDE90042EF
:10050000001C41F5801132462B4600F037FA03B04B
:10051000BDE8F08F40462146F9E7001B61EB020180
:10052000001C41F5801300185B412018A2F500174C
:1005300047EB030140EAD570B6196D4111E06D0833
:100540004FEA360645EAC0754FEA0752001B61EBD9
:100550000201001C41F5801149084FEA30000019E2
:10056000514132462B4603B0BDE8F04F00F0F7B9D9
:100570000098012240000023D0EB020263EBE073FD
:10058000009821464FEAE074B8EB000061EB0401EB
:10059000E9E783F000435BE781F0004158E72DE98C
:1005A000FE4F81EA030404F0004421F0004100946E
:1005B0004FF0000B23F0004350EA01045ED052EAF2
:1005C00003045BD0C3F30A54C1F30A552C44A4F2CC
:1005D000F3340194A0FB0254C1F3130141F48011E0
:1005E000C3F3130343F4801301FB024400FB034EE7
:1005F000840A970A44EA815447EA8357A4FB0768B0
:1006000002958D0A05FB07854FEA932C04FB0C54D9
:100610002705029D4FEA065847EA1637B5EB08054D
:100620006EEB070C870E920E47EA811742EA83129F
:10063000A7FB0201B6EB0B0164EB00042B0D43EAB0
:100640000C335E1844EB1C50DA465146E7FB0201BE
:10065000C5F313044FEA0B3343EA14534FEA043251
:10066000019C43EA0603A4F10C040294009CCDE92A
:1006700000B400F083F903B0BDE8F08F002001461C
:10068000F9E72DE9F04D81EA030404F0004B21F075
:10069000004514464FF0000A23F0004150EA0502DD
:1006A00020D054EA01021DD0C5F30A570246C5F313
:1006B0001303C1F31300C1F30A5640F4801543F449
:1006C0008013A7EB0608101BD64608F2FD3873EB23
:1006D000050002D308F1010801E092185B41B8F16E
:1006E000000F03DA00200146BDE8F08D00204FF432
:1006F0008011064684460EE0171B73EB050705D3F1
:10070000121B63EB050306434CEA010C49084FEA50
:10071000300092185B4150EA0107EDD152EA030024
:1007200012D082EA040083EA0501084305D0101BB9
:10073000AB4106D20122002306E000224FF0004325
:1007400002E06FF0010253101AEB06004CEB085167
:1007500010EB0A0041EB0B01BDE8F04D00F0FFB8D3
:10076000C10F80EAE0700844CA079623002100F018
:10077000C8B896230022114600F0C3B800F000422A
:1007800020F00040C10DC0F3160040F400007F29A6
:1007900001DA00207047962903DCC1F19601C840B8
:1007A00001E096398840002AF4D04042704700F0BA
:1007B000004230F000400AD0C10D01F56071C0F375
:1007C000160042EA0151C208400711437047002059
:1007D0000146704701F0004330B421F0004150EA77
:1007E000010206D00A0DA2F56072C1F31301002ABE
:1007F00002DC30BC00207047440F44EAC104C10051
:10080000E01830BC00EBC25000F072B8002801DBE9
:10081000C0F10040002901DBC1F100418142704775
:1008200030B50B46014600202022012409E021FAC0
:1008300002F59D4205D303FA02F5491B04FA02F5BD
:100840002844151EA2F10102F1DC30BD2DE9F05F54
:100850000546002092469B4688460646814640242F
:100860001BE02846414647462246FFF7C9FC53464F
:100870005A46C01A914110D311461846224600F03C
:1008800016F82D1A67EB01084F4622460120002179
:1008900000F00DF817EB00094E41201EA4F10104F1
:1008A000DFDC484631462A464346BDE8F09F202A11
:1008B00004DB203A00FA02F1002070479140C2F1B7
:1008C000200320FA03F3194390407047202A06DBE7
:1008D000CB17203A41FA02F043EAE07306E041FA0E
:1008E00002F3D040C2F120029140084319467047FC
:1008F0000029A8BF7047401C490008BF20F0010034
:10090000704710B4B0FA80FC00FA0CF050EA010411
:1009100004BF10BC704749B1CCF1200421FA04F4A3
:1009200011FA0CF118BF012121430843A3EB0C017C
:10093000CB1D4FEA00614FEA102042BF002010BCDF
:10094000704700EBC35010440029A4BF10BC70478F
:10095000401C490008BF20F0010010BC704710B5D2
:10096000141E73F1000408DA401C41F100019218D2
:100970005B411A4301D120F0010010BD2DE9F04D7B
:1009800092469B4611B1B1FA81F202E0B0FA80F2D0
:1009900020329046FFF78BFF04460F4640EA0A00DC
:1009A00041EA0B0153465A46084313D0114653EA15
:1009B000010019D0C8F140025046FFF721FC05465E
:1009C0000E46504659464246FFF771FF084305D090
:1009D000012004E020463946BDE8F08D00200543A3
:1009E00046EAE0762C4337430A986305E40AA0EB15
:1009F00008000022FD0A44EA47540A3002D50020CC
:100A00000146E9E7010510196941DDE908450019CA
:100A10006941BDE8F04DA2E7C1F30A52C1F31301E9
:100A200040F2FF3341F480119A4202DA002001467D
:100A3000704740F233439A42A2F2334202DC524200
:100A4000FFF7DEBBFFF733BF30B5041E71F10004C2
:100A500004DB4FF00044404264EB0101141E73F1CB
:100A6000000405DB1C464FF00043524263EB0403D5
:100A7000994208BF904230BD064C074D06E0E06841
:100A800040F0010394E8070098471034AC42F6D3D5
:100A9000FFF752FBEC9900080C9A000870B58C180F
:100AA00010F8015B15F0070301D110F8013B2A1182
:100AB00006D110F8012B03E010F8016B01F8016B6F
:100AC0005B1EF9D12B0705D40023521E0DD401F86B
:100AD000013BFAE710F8013BCB1A921C03E013F834
:100AE000015B01F8015B521EF9D5A142D8D3002069
:100AF00070BD70B5044600252068806800F00100D4
:100B000018B32068806820F001002168886001F037
:100B1000A9F9054613E001F0A5F9401B02280ED9FA
:100B20002068806800F0010048B1A06A40F0100021
:100B3000A062E06A40F00100E062012070BD206820
:100B4000806800F001000028E5D10020F6E770B5CC
:100B500005466C6AA06A00F05000E0B9A06A40F453
:100B60000070A0622068806800F46020B0F5602FFB
:100B70000DD1207B58B9A06A20F48070A062A06AD1
:100B800000F4805018B9A06A40F00100A06220462D
:100B900000F026FA03E0206A016B2846884770BD02
:100BA00070B505466C6AA06A40F04000A062E06A39
:100BB00040F00400E062204600F014FA70BD70B509
:100BC0000446656A284600F00CFA70BD38B5044644
:100BD0000025002000902068806800F0010078BBAC
:100BE0002068806840F0010021688860194800682A
:100BF0001949B0FBF1F0009002E00098401E00900F
:100C000000980028F9D101F02DF9054619E001F00E
:100C100029F9401B022814D92068806800F00100DF
:100C200078B9A06A40F01000A062E06A40F00100CC
:100C3000E06200BF002084F8240000BF012038BD1E
:100C400005E02068806800F001000028DFD0002067
:100C5000F5E700007403002040420F0010B54FF488
:100C6000FA620249024800F0C7FA10BDC00C002029
:100C7000601C00202DE9F05F00242BE04FF0000AFB
:100C8000D1460FE0154901EB890131F81400FFF757
:100C900070FD05465146FFF713FB824609F101003E
:100CA0001FFA80F9B9F57A7FECDB0D495046FFF762
:100CB00091FB8346FFF77BFD07464FF06632094BF9
:100CC000FFF76DFC0546FFF785FD074941F8240055
:100CD000601C84B2022CD1DBBDE8F09FC00C002068
:100CE00000007A4A66660A405C03002010B504469C
:100CF00000200A490870214609A005F00DFB0AE012
:100D000006480078012803D100200449087003E058
:100D1000322000F091FEF3E700BF10BD0003002079
:100D200025730D0A0000000000BFFEE72DE9F04723
:100D30000D490868FFF73BFD80460C4A0C4BFFF756
:100D400028FC06460B4A0C4BFFF79BFC0446FFF7BA
:100D500041FD824600215046FFF758FD02D2002097
:100D6000BDE8F0875046FBE75C03002014AE47E186
:100D70007A140440AE47E17A14AEC73F10B502487A
:100D800000F0FAFB10BD0000901C002030B590F878
:100D900040500124AC40C56B6C60046863604468DB
:100DA000102C04D10468A2600468E16003E00468C8
:100DB000A1600468E26030BD704710B54FF4005088
:100DC00000F092FE4FF4804000F08EFE10BD72B62F
:100DD00000BFFEE72DE9FC418046FFF74BFF04F022
:100DE000B8FA0446FFF7A2FF054605F01DFA0646CD
:100DF00019A02B461AA23146CDE900041AA003F02F
:100E000075FB4FF4FA7005F09DFF194880880A21A0
:100E100090FBF1F73846FFF7A3FC044614484088DE
:100E20000A2190FBF1F73846FFF79AFC0546104877
:100E300000880A2190FBF1F73846FFF791FC06463F
:100E40000CA02B460CA23146CDE900040BA003F008
:100E50004DFBBDE8FC810000706F776572000000FB
:100E600063757272656E7400766F6C74616765008D
:100E7000280300204C3300004C3200004C310000AD
:100E800038B5024600230020009000BF92F82400ED
:100E9000012801D1022038BD012082F8240000BFC2
:100EA0004868072812D21068406B0C79641E04EB66
:100EB00084051F24AC40A0430D796D1E05EB85050C
:100EC0000C68AC4020431468606327E048680D2834
:100ED00012D21068006B0C79E41F04EB84051F2408
:100EE000AC40A0430D79ED1F05EB85050C68AC40C7
:100EF00020431468206311E01068C06A0C790D3C2F
:100F000004EB84051F24AC40A0430D790D3D05EB97
:100F100085050C68AC4020431468E06208680A2824
:100F200012D31068C0680C780A3C04EB440507240F
:100F3000AC40A0430D780A3D05EB45058C68AC40FC
:100F400020431468E0600FE0106800690C7804EB3F
:100F500044050724AC40A0430D7805EB45058C689B
:100F6000AC402043146820610868102802D008684B
:100F7000112827D1174C1068A0421ED11068806834
:100F800000F40000F0B91068806840F400001468B4
:100F9000A0600868102815D10F4800680F4CB0FBFE
:100FA000F4F000EB80004000009002E00098401E4A
:100FB000009000980028F9D104E0906A40F02000E9
:100FC0009062012300BF002082F8240000BF184671
:100FD00061E70000002401407403002040420F003C
:100FE00070477047704700002DE9F0410446002724
:100FF00000250026A84614B90120BDE8F081A068AC
:1010000010B1207D00B100BFA06A30B90020E062BD
:1010100084F82400204600F097F82046FFF769FD89
:101020000746A06A00F01000002873D1002F7ED17F
:10103000A06A20F4885040F00200A0623F4AD4E940
:101040000001904208D1E069B0F5402F02D14FF481
:10105000002002E0E06900E0E0690143207B41EA12
:1010600040000643A068B0F5807F02D0A068012848
:1010700002D14FF4807000E000200543207D01285C
:1010800011D1207B38B9A069401E4FF4006141EABC
:101090004030054307E0A06A40F02000A062E06A0B
:1010A00040F00100E0622068406820F46940284375
:1010B00021684860206880682149084030432168E1
:1010C0008860A068B0F5807F02D0A068012802D1B6
:1010D0004FF4807000E00020B0F5807F03D1208ABB
:1010E000401E4FEA00582068C06A20F4700040EAB1
:1010F00008002168C8622068806812490840B04230
:1011000009D10020E062A06A20F0020040F0010056
:10111000A06211E00BE0A06A20F0020040F0100095
:10112000A062E06A40F00100E062012704E0A06AEA
:1011300040F01000A062012738465EE7003C014005
:10114000FDF7E1FFFE0E1FFF10B586B0044600203C
:1011500002900390049005902249206888423ED175
:1011600000BF2148806940F400701F49886108462B
:10117000806900F40070019000BF00BF00BF084606
:10118000806940F0040088610846806900F004002E
:10119000019000BF00BF052002900320039002A928
:1011A000124800F0AFFC1248124908600020486065
:1011B0000021104881608021C160490001618900DF
:1011C0004161202181610021C16100F0A1FB08B1D2
:1011D000FFF7FDFD00BF07482062446200BF06B074
:1011E00010BD000000240140001002400008014032
:1011F00008000240901C00202DE9F04104460D46F5
:101200001646002757492068884203D0564920686F
:10121000884205D15348001D006800F4702000E0AA
:10122000002000287ED100BF94F82400012802D1BC
:101230000220BDE8F081012084F8240000BF204690
:10124000FFF7C4FC0746002F6DD1A06A40F601618C
:10125000884340F48070A06243492068884209D1E5
:101260004048001D006800F4702008B9012002E029
:10127000002000E0012078B1A06A20F48010A06274
:101280002068406800F4806000B3A06A20F4005039
:1012900040F48050A06219E0A06A40F48010A0627F
:1012A00030492068884203D02F492068884205D100
:1012B0002C48001D006800F4806000E0002028B188
:1012C000A06A20F4005040F48050A062A06A00F4AC
:1012D000805020B1E06A20F00600E06201E00020CA
:1012E000E06200BF002084F8240000BF1F48216A8C
:1012F00088621F48216AC8621E48216A08636FF02D
:101300000200216808602068806840F480702168CD
:101310008860226802F14C0133462A46206A00F0B8
:101320003DFB01E01AE014E02068806800F46020D2
:10133000B0F5602F06D12068806840F4A0002168D5
:1013400088600CE02068806840F480102168886024
:1013500005E000BF002084F8240000E001273846A3
:1013600067E7000000240140002801404F0B0008FF
:10137000BF0B0008A10B00080146002291F82100D4
:10138000022808D00420886300BF002081F82000D4
:1013900000BF012070470868006820F00E000B684D
:1013A00018600868006820F001000B68186091F868
:1013B000403001209840CB6B5860012081F821001B
:1013C00000BF002081F8200000BF1046E2E70000C7
:1013D00070B50446002594F82100022803D00420AB
:1013E000A0630125C1E02068006820F00E0021689C
:1013F00008602068006820F00100216808605C49EE
:101400002068884252D95A4978392068884201D1E7
:10141000012047E0564964392068884201D11020F4
:1014200040E0534950392068884201D1801539E0A5
:101430004F493C392068884201D1801432E04C4940
:1014400028392068884202D14FF480302AE0484988
:1014500014392068884202D14FF4801022E04449B8
:101460002068884201D140041CE04249206888423B
:1014700001D1012016E03F4914312068884201D192
:1014800010200FE03B4928312068884201D18015A7
:1014900008E038493C312068884201D1801401E0DD
:1014A0004FF480303349091F086051E030497839E2
:1014B0002068884201D1012047E02D496439206825
:1014C000884201D1102040E02949503920688842E3
:1014D00001D1801539E026493C392068884201D184
:1014E000801432E0224928392068884202D14FF422
:1014F00080302AE01E4914392068884202D14FF416
:10150000801022E01A492068884201D140041CE082
:1015100018492068884201D1012016E0154914318C
:101520002068884201D110200FE01249283120683C
:10153000884201D1801508E00E493C31206888427C
:1015400001D1801401E04FF48030094980394860AE
:10155000012084F8210000BF002084F8200000BF93
:10156000606B10B12046616B8847284670BD000053
:10157000800002400804024070B50446E06B056834
:101580002068066894F8401004208840284000280D
:1015900075D006F004000028FAD02068006800F03A
:1015A000200028B92068006820F004002168086045
:1015B000D5492068884254D9D3497839206888426F
:1015C00001D1042049E0D04964392068884201D122
:1015D000402042E0CC4950392068884201D10015B2
:1015E0003BE0C9493C392068884202D14FF4804031
:1015F00033E0C54928392068884202D14FF4802061
:101600002BE0C14914392068884202D14FF4800090
:1016100023E0BD492068884201D1C0041DE0BB49D8
:101620002068884201D1042017E0B84914312068AD
:10163000884201D1402010E0B44928312068884216
:1016400001D1001509E0B1493C312068884202D13E
:101650004FF4804001E04FF48020AC49091F08603E
:1016600054E0A94978392068884201D104204AE031
:10167000A54964392068884202D1402043E04CE00B
:10168000A14950392068884201D100153BE09E49AC
:101690003C392068884202D14FF4804033E09A49B7
:1016A00028392068884202D14FF480202BE09649E7
:1016B00014392068884202D14FF4800023E0924917
:1016C0002068884201D1C0041DE09049206888420A
:1016D00001D1042017E08D4914312068884201D1DE
:1016E000402010E0894928312068884201D1001546
:1016F00009E086493C312068884202D14FF480409D
:1017000001E04FF48020804980394860E06A002879
:1017100002D02046E16A8847F4E094F840100220A5
:1017200088402840002871D006F002000028FAD036
:101730002068006800F0200040B92068006820F0B0
:101740000A0021680860012084F821006E492068A1
:10175000884254D96C4978392068884201D10220E6
:1017600049E0694964392068884201D1202042E07B
:10177000654950392068884201D140153BE06249F3
:101780003C392068884202D14FF4005033E05E4972
:1017900028392068884202D14FF400302BE05A49A2
:1017A00014392068884202D14FF4001023E05649D2
:1017B0002068884201D180041DE054492068884295
:1017C00001D1022017E0514914312068884201D12B
:1017D000202010E04D4928312068884201D1401571
:1017E00009E04A493C312068884202D14FF4005058
:1017F00001E04FF400304549091F086054E04249B8
:1018000078392068884202D102204AE057E03E49F8
:1018100064392068884201D1202042E03A49503999
:101820002068884201D140153BE037493C392068A7
:10183000884202D14FF4005033E033492839206800
:10184000884202D14FF400302BE02F491439206830
:10185000884202D14FF4001023E02B4920688842CF
:1018600001D180041DE029492068884201D102206D
:1018700017E0264914312068884201D1202010E069
:10188000224928312068884201D1401509E01F49CA
:101890003C312068884202D14FF4005001E04FF4FF
:1018A000003019498039486000BF002084F82000CA
:1018B00000BFA06A30B32046A16A884722E094F8AE
:1018C0004010082088402840E0B106F00800C8B168
:1018D0002068006820F00E002168086094F840102D
:1018E00001208840E16B48600120A06384F821005A
:1018F00000BF002084F8200000BF206B10B12046FC
:10190000216B884770BD000080000240080402403F
:101910000146002209B9012070471E4B0868984211
:101920000BD21D4B0868C01A1423B0FBF3F08000E3
:10193000086419480838C8630AE0164B0868C01ADA
:101940001423B0FBF3F08000086412480838C86321
:10195000022081F821000868026843F6F070824393
:10196000D1E901031843CB6818430B6918434B694D
:1019700018438B691843CB69184302430868026017
:1019800000208863012081F82100002081F82000D8
:1019900000BFC1E708040240080002402DE9F04101
:1019A00004460D4616461F464FF0000800BF94F847
:1019B0002000012802D10220BDE8F081012084F836
:1019C000200000BF94F8210001282CD1022084F8C7
:1019D00021000020A0632068006820F00100216839
:1019E00008603B46324629462046FFF7CFF9E06AB9
:1019F00030B12068006840F00E00216808600BE0FC
:101A00002068006820F004002168086020680068F1
:101A100040F00A00216808602068006840F001007A
:101A20002168086006E000BF002084F8200000BFA5
:101A30004FF002084046BFE770B5044600F012FAC6
:101A400006462546681C10B104480078054400BFCE
:101A500000F008FA801BA842FAD370BD7003002082
:101A60003EB50446002002900190B4F5005F03D01B
:101A7000B4F5804F2ED116E006F0A4FF05460020F5
:101A800002AB2A46072100901448006807F064FA68
:101A9000029838B14FF0805011490860BFF34F8F62
:101AA000BFF36F8F17E006F08DFF0546002001ABF6
:101AB0002A46072100900B48006807F04DFA01986C
:101AC00038B14FF0805006490860BFF34F8FBFF325
:101AD0006F8F00E000BF00BF3EBD00004C03002040
:101AE00004ED00E05003002010B5044604480068EF
:101AF000204020B1024804602046FFF7B1FF10BD2E
:101B0000140401402DE9F847024600239C467BE17E
:101B10004FF0010808FA03F4D1F8008008EA040045
:101B2000A0427DD1DFF8F4A2D1F80480A8EB0A0925
:101B3000D0453AD014DCB8F1030F50D009DCB8F12D
:101B4000000F31D0B8F1010F1CD0B8F1020F49D10C
:101B500020E0B8F1110F18D0B8F1120F42D11EE0F9
:101B6000B9F5881F25D006DCB9F5803F20D0B9F53E
:101B7000801F37D11AE0B9F5001F18D0B9F5041F3E
:101B800030D117E0D1F80CC02DE0D1F80C8008F16D
:101B9000040C28E0D1F80C8008F1080C23E0D1F8FF
:101BA0000C8008F10C0C1EE000BF00BF00BF00BF9E
:101BB00000BF00BFD1F80880B8F1000F02D14FF08C
:101BC000040C0BE0D1F80880B8F1010F03D14FF0FD
:101BD000080C146102E04FF0080C546103E04FF070
:101BE000000C00E000BF00BFFF2801D8904601E0D4
:101BF00002F104084646FF2802D84FEA830803E0B2
:101C0000A3F108084FEA88084746D6F800804FF04D
:101C10000F0909FA07F928EA09080CFA07F900E0A0
:101C20007AE048EA0908C6F80080D1F8048008F094
:101C30008058B8F1805F6FD100BFDFF8E481D8F839
:101C4000188048F00108DFF8D891C9F81880C84614
:101C5000D8F8188008F00108CDF8008000BF00BF58
:101C60004FEAB9384FEA930958F829504FEA837878
:101C70004FEA18794FF00F0808FA09F825EA080525
:101C8000DFF8A081424502D14FF0000824E0DFF8E0
:101C90009881424502D14FF001081DE0DFF88C81A8
:101CA000424502D14FF0020816E0DFF88481424538
:101CB00002D14FF003080FE0DFF87881424502D1EE
:101CC0004FF0040808E0DFF87081424502D14FF080
:101CD000050801E04FF006084FEA83794FEA1979C9
:101CE00008FA09F848EA0505DFF850814FEA930938
:101CF00048F82950D1F8048008F48018B8F5801FFE
:101D00000BD1DFF83C81D8F8008048EA0008DFF802
:101D10003091C9F800800AE075E0DFF82481D8F836
:101D2000008028EA0008DFF81891C9F80080D1F88F
:101D3000048008F40018B8F5001F0ED1DFF8008108
:101D400008F10408D8F8008048EA0008DFF8F090AD
:101D500009F10409C9F800800DE0DFF8E48008F11A
:101D60000408D8F8008028EA0008DFF8D49009F1C8
:101D70000409C9F80080D1F8048008F40038B8F5E7
:101D8000003F0ED1DFF8B880A8F10408D8F8008031
:101D900048EA0008DFF8A890A9F10409C9F8008012
:101DA0000DE0DFF89C80A8F10408D8F8008028EA4C
:101DB0000008DFF88C90A9F10409C9F80080D1F877
:101DC000048008F48038B8F5803F0ED1DFF87080C9
:101DD000A8F10808D8F8008048EA0008DFF8609009
:101DE000A9F10809C9F800800DE0DFF85480A8F1D6
:101DF0000808D8F8008028EA0008DFF84490A9F124
:101E00000809C9F800805B1CD1F8008028FA03F8A3
:101E1000B8F1000F7FF47CAEBDE8F8870000111028
:101E20000010024000080140000C01400010014079
:101E30000014014000180140001C0140080001404E
:101E40000804014010B5C26821EA020302EA010455
:101E500043EA0443036110BD0AB1016101E00B04D0
:101E60000361704701480068704700006803002064
:101E7000034800680349097808440149086070472D
:101E8000680300207003002010B50848006840F087
:101E9000100006490860032000F0E2F80F2000F06F
:101EA00007F800F05FF8002010BD0000002002409D
:101EB0002DE9F04188B004460027B846002600BF4F
:101EC0002348C06940F020002149C8610846C06924
:101ED00000F02000019000BF00BF02A903A800F09D
:101EE000C3FA069F1FB900F0E7FA054602E000F0CA
:101EF000E3FA45001748B5FBF0F0A0F101081648D9
:101F00001649086040F2E7311448C160C0F8048007
:101F1000002101618160816101F0FEF8064696B9F9
:101F20000E4801F087F906466EB9372000F04AF8EE
:101F3000102C07D200222146372000F053F8084821
:101F4000046000E00126304608B0BDE8F0810000E2
:101F50000010024040420F0000140040C01D00204D
:101F60006C03002008B500BF1448806940F00100F0
:101F7000124988610846806900F00100009000BFA6
:101F800000BF00BF0846C06940F08050C8610846E5
:101F9000C06900F08050009000BF00BF00220F21F8
:101FA000901E00F01FF800BF0549486820F0E0606F
:101FB00040F00070486000BF08BD00000010024003
:101FC0000000014001460846002809DB00F01F031D
:101FD00001229A4043099B0003F1E023C3F800214A
:101FE00000BF70472DE9F05F80460D46164600277A
:101FF00004F0B6F9074639462A46334601F0070091
:10200000C0F1070ABAF1040F02D94FF0040A01E047
:10201000C0F1070AD14600F1040ABAF1070F02D253
:102020004FF0000A01E0A0F1030AD4464FF0010A84
:102030000AFA09FAAAF1010A0AEA020A0AFA0CFAE9
:102040004FF0010B0BFA0CFBABF1010B0BEA030B8E
:102050004AEA0B042146404604F08AF9BDE8F09FA5
:1020600000BF00F00702064B19684FF6FF03194046
:10207000044B0B4343EA0221014B196000BF704738
:102080000CED00E00000FA050120014908627047EC
:1020900000000E422DE9F04706464FF000080025EB
:1020A00000270024A146042E37D004DC012E3CD0AA
:1020B000022E6CD160E0082E33D0102E67D1364846
:1020C0004468006800F0807008B33448C4F383416A
:1020D000475C04F4803078B12F484068C0F340403A
:1020E0002F4911F8008004F4803040B12D48B0FB36
:1020F000F8F000FB07F502E02B4807FB00F5264847
:10210000406800F48000B0F5800F01D1A94603E0DB
:1021100068000321B0FBF1F93AE000F0EDF98146E7
:1021200036E000F0E9F9814632E01B48046A04F425
:102130004070B0F5807F05D104F0020010B14FF47B
:10214000004918E004F44070B0F5007F07D1124850
:10215000406A00F0020010B149F640490BE004F477
:102160004070B0F5407F06D10B48006800F40030A5
:1021700008B14FF224490BE000F0AEF90649496876
:10218000C1F38131491C4900B0FBF1F900E000BF07
:1021900000BF4846BDE8F087001002407298000872
:1021A0008298000800127A0000093D00F8B5044644
:1021B00000260025207800F0010000286BD00027C1
:1021C0004348C06900F0805070B900BF4048C06902
:1021D00040F080503E49C8610846C06900F0805018
:1021E000009000BF00BF01273A48006800F48070EB
:1021F000B0B93848006840F4807036490860FFF78D
:1022000031FE064606E0FFF72DFE801B642801D94B
:102210000320F8BD2F48006800F480700028F2D039
:102220002B48006A00F440752DB3A08800F440707C
:10223000A84220D02648006A20F440750120264993
:102240000860002008602248056205F0010090B196
:10225000FFF708FE064608E0FFF704FE801B41F288
:102260008831884201D90320D3E71948006A00F079
:1022700002000028F0D01648006A20F4407061681F
:10228000084313490862012F04D10846C06920F0B1
:102290008050C86100BF207800F00200022807D1FA
:1022A0000B48406820F44040A16808430849486052
:1022B000207800F01000102807D10548406820F46D
:1022C000800061690843024948600020A1E70000DE
:1022D00000100240007000404004424270B50446C5
:1022E0000D460CB9012070BD5A48006800F0070087
:1022F000A8420ED25748006820F0070028435549ED
:1023000008600846006800F00700A84201D00120DC
:10231000E9E7207800F0020002281DD1207800F0C3
:102320000400042805D14C48406840F4E0604A4964
:102330004860207800F00800082805D14648406829
:1023400040F46050444948604348406820F0F00041
:10235000A168084340494860207800F0010078B344
:102360006068012806D13C48006800F4003090B94C
:102370000120B8E76068022806D13748006800F0FD
:10238000007040B90120AEE73348006800F0020059
:1023900008B90120A7E73048406820F003006168D1
:1023A00008432D494860FFF75DFD064609E0FFF749
:1023B00059FD801B41F28831884202D9032092E7FF
:1023C00007E02548406800F00C006168B0EB810F21
:1023D000EDD12048006800F00700A8420ED91D4842
:1023E000006820F0070028431A4908600846006882
:1023F00000F00700A84201D0012074E7207800F027
:102400000400042807D11448406820F4E060E16823
:10241000084311494860207800F00800082808D1D6
:102420000D48406820F46050216940EAC1000A4923
:10243000486000F061F808494968C1F30311074A90
:10244000515CC8400649086006480068FFF730FD47
:10245000002048E700200240001002408498000855
:10246000740300206C0300200F2202600D4A5268A2
:1024700002F0030242600B4A526802F0F0028260EE
:10248000084A526802F4E062C260064A526802F4E6
:102490006052D2080261044A126802F007020A6020
:1024A0007047000000100240002002400148006810
:1024B000704700007403002000B5FFF7F7FF0449E0
:1024C0004968C1F30221034A515CC84000BD0000C5
:1024D000001002409498000800B5FFF7E7FF044998
:1024E0004968C1F3C221034A515CC84000BD0000E5
:1024F000001002409498000870B5002100220024CA
:1025000000230020134D696801F00C05F5B1042D7E
:1025100002D0082D19D101E00F4819E00F4DC1F389
:102520008346AB5D01F4803555B10A4D6D68C5F346
:1025300040450B4E725D084D5D43B5FBF2F402E081
:10254000084D03FB05F4204602E000BF024800BF2F
:1025500000BF70BD0010024000127A0060980008B1
:102560007098000800093D00F8B504460CB9012038
:10257000F8BD207800F00100002878D0F8484068C5
:1025800000F00C0004280CD0F548406800F00C0066
:10259000082811D1F248406800F48030B0F5803F3F
:1025A0000AD1EF48006800F4003000285FD060686E
:1025B00000285CD10120DBE700BF6068B0F5803FF8
:1025C00006D1E748006840F48030E549086028E01B
:1025D000606858B9E248006820F48030E04908603B
:1025E0000846006820F4802008601AE06068B0F5B2
:1025F000A02F0BD1DA48006840F48020D849086049
:102600000846006840F4803008600AE0D44800685A
:1026100020F48030D24908600846006820F4802009
:10262000086000BF606888B1FFF71CFC054606E043
:10263000FFF718FC401B642801D9032098E7C8481D
:10264000006800F400300028F2D010E0FFF70AFC28
:10265000054606E0FFF706FC401B642801D903206D
:1026600086E7BF48006800F400300028F2D12078E7
:1026700000F00200022857D1B948406800F00C0071
:1026800050B1B748406800F00C00082818D1B44891
:10269000406800F4803098B9B148006800F002004A
:1026A00020B12069012801D0012061E7AC48006811
:1026B00020F0F800616940EAC100A949086033E0F0
:1026C0002069E8B10120A7490860FFF7CBFB054668
:1026D00006E0FFF7C7FB401B022801D9032047E7AC
:1026E0009F48006800F002000028F2D09C48006873
:1026F00020F0F800616940EAC1009949086013E0E0
:10270000002098490860FFF7ADFB054606E0FFF79B
:10271000A9FB401B022801D9032029E79048006843
:1027200000F002000028F2D1207800F0080008280C
:102730002DD1A069B8B101208B490860FFF792FB49
:10274000054606E0FFF78EFB401B022801D9032057
:102750000EE78348406A00F002000028F2D0012012
:1027600002F002FE13E000207F490860FFF77AFBC9
:10277000054606E0FFF776FB401B022801D903203F
:10278000F6E67748406A00F002000028F2D120788F
:1027900000F00400042873D100277148C06900F0DC
:1027A000805070B900BF6E48C06940F080506C49DD
:1027B000C8610846C06900F08050009000BF00BFAB
:1027C00001276A48006800F48070B0B96748006863
:1027D00040F4807065490860FFF744FB054606E059
:1027E000FFF740FB401B642801D90320C0E65F4887
:1027F000006800F480700028F2D000BFE068012873
:1028000006D15748006A40F001005549086227E0A8
:10281000E06858B95248006A20F001005049086247
:102820000846006A20F00400086219E0E068052804
:102830000BD14B48006A40F0040049490862084641
:10284000006A40F0010008620AE04548006A20F092
:102850000100434908620846006A20F0040008624B
:1028600000BFE068A0B1FFF7FDFA054609E0FFF7F9
:10287000F9FA401B41F28831884202D9032077E6F9
:1028800022E03748006A00F002000028EFD012E092
:10289000FFF7E8FA054608E0FFF7E4FA401B41F2CB
:1028A0008831884201D9032062E62D48006A00F091
:1028B00002000028F0D1012F05D12948C06920F07D
:1028C00080502749C86100BFE069C8B32448406808
:1028D00000F00C00082860D0E069022848D10020F0
:1028E00020490866FFF7BEFA054606E0FFF7BAFA88
:1028F000401B022801D903203AE61948006800F07D
:1029000000700028F2D1206AB0F5803F07D114484A
:10291000406820F40030A168084311494860D4E9B8
:10292000080108430E49496821F4741108430C4911
:10293000486001200B490866FFF794FA054607E056
:102940003DE0FFF78FFA401B022801D903200FE674
:102950000348006800F000700028F2D02FE000006B
:1029600000100240000042428004424200700040D9
:10297000002014490866FFF775FA054606E0FFF7E0
:1029800071FA401B022801D90320F1E50E480068C6
:1029900000F000700028F2D111E0E069012800D1B8
:1029A000E6E50948466806F48031206A814204D190
:1029B00006F47011606A814201D00120D8E5002040
:1029C000D6E50000000042420010024010B5044667
:1029D0002F480078012831D12E48008858B92D4859
:1029E000408840B92B48808828B94FF4E1702949C4
:1029F0000880488088802848008828B92648408870
:102A000010B92548808848B12348008821490880AA
:102A10002148408848802048808888801D48008858
:102A20001E49096848631B4840881C490968886337
:102A3000184880881949096808641DE0154800880D
:102A4000154908801348408848801248808888804B
:102A500000201049088048808880084600880F4977
:102A6000096848630B4840880C490968886309482D
:102A700080880A49096808640020054908700849E7
:102A80000870102307A2062102F0AAFB10BD000067
:102A9000270300202803002038030020301D0020D9
:102AA000260300202020202020202020202020205D
:102AB0002020000010B5044620680068C0F34000E4
:102AC00068B120684068C0F3400040B12046FFF77D
:102AD0007DFF2068406820F00200216848604FF4C4
:102AE0000030024908600120607410BD14040140E8
:102AF000F8B505460C4616460020009005B10CB905
:102B00000120F8BD00226946284600F01AF808B1F5
:102B10000120F6E7287B2070E87BE070687B60701E
:102B2000A87BA0705EB1E07802F045FCE0706078B0
:102B300002F041FC6070A07802F03DFCA070002023
:102B4000DFE72DE9F04780460C4691460025002638
:102B5000AA460027B8F1000F00D014B90120BDE843
:102B6000F087D8F800004068C0F3800008B1012069
:102B7000F5E7404602F0E6FC05464FF46160B5FB20
:102B8000F0F7B5FBF0F100FB11503C21B0FBF1F088
:102B900060704FF46160B5FBF0F100FB11503C2117
:102BA000B0FBF1F201FB1200A070182F39D31820EE
:102BB000B7FBF0FAB7FBF0F100FB11702070404654
:102BC00002F0B4FC0646701C18B1AE4201D9761B67
:102BD00001E04FF0FF360AEB4A00C000C0EB4011A5
:102BE000C1EB0020A5EB00152946404602F07BFD15
:102BF00008B10120B3E7701C38B12E44314640467D
:102C000002F05AFD40B10120A9E73146404602F0EA
:102C100053FD08B10120A2E75146404602F0D8FB1F
:102C200000E02770B9F1000F0BD0207802F0C3FB51
:102C30002070607802F0BFFB6070A07802F0BBFBF0
:102C4000A07000208BE7000070B5044600250CB989
:102C5000012070BD607C20B900202074204600F067
:102C600053F802206074204600F0E6F918B1042001
:102C700060740120EDE7204602F005FC18B1042045
:102C800060740120E5E72068406820F007002168B3
:102C90004860A06828B11B48006820F0010019496D
:102CA00008601848001F006820F46070A16808439D
:102CB0001449091F08606068401C08B1656809E094
:102CC0000120FFF7E7F905461DB9042060740120D3
:102CD000BFE76D1EC5F3034021688860A8B2216874
:102CE000C860204602F0ECFB18B10420607401209B
:102CF000AFE70021E17301216173A17301206074CA
:102D00000020A6E7306C004038B504460F49206823
:102D100088421AD1FFF7B8F900BF0D48C06940F0EA
:102D200000600B49C8610846C06900F0006000906F
:102D300000BF00BF012007490860002205212920AB
:102D4000FFF750F92920FFF73DF938BD0028004072
:102D5000001002403C0442422DE9F84304460D466F
:102D6000174600260020009004B115B90120BDE8E7
:102D7000F88300BF207C012801D10220F7E7012061
:102D8000207400BF02206074002269462046FFF7CD
:102D9000D8FE08B10120EAE79DF800004FF4616118
:102DA00048439DF80110C1EB011100EB81009DF833
:102DB000021000EB01085FB928784FF461614843C5
:102DC0006978C1EB011100EB8100A978461812E087
:102DD000287802F0E5FA4FF4616100FB01F96878A8
:102DE00002F0DEFAC0EB001009EB8009A87802F0CF
:102DF000D7FA09EB0006464501D218480644314689
:102E0000204602F059FC38B10420607400BF002055
:102E1000207400BF0120AAE72068406820F002006B
:102E2000216848602068006840F00200216808605E
:102E30000B48006840F40030094908600848083031
:102E4000006840F4003006490831086001206074D1
:102E500000BF0020207400BF00BF88E78051010040
:102E6000000401402DE9F04704460D469046002637
:102E70000027B14604B115B90120BDE8F08700BFB5
:102E8000207C012801D10220F7E70120207400BF37
:102E900002206074B8F1000F06D1E978E173697817
:102EA0006173A978A1730BE0E87802F079FAE07316
:102EB000687802F075FA6073A87802F071FAA0736E
:102EC000A27B617BE07B02F0B5FB2073207B287046
:102ED000204602F037FB06464FF46160B6FBF0F97E
:102EE000B9F1180F2FD91820B9FBF0F000EB400012
:102EF000C000C0EB4011C1EB0020A6EB001631462C
:102F0000204602F0F0FB38B10420607400BF0020BE
:102F1000207400BF0120B0E7204602F007FB0746FF
:102F2000781C80B1B7420ED20B4807443946204680
:102F300002F0C2FB38B10420607400BF002020748E
:102F400000BF012099E70120607400BF00202074B9
:102F500000BF00BF91E70000805101002DE9F0475C
:102F600004460D4690460026002704B115B90120FD
:102F7000BDE8F08700BF207C012801D10220F7E7DF
:102F80000120207400BF02206074B8F1000F0BD143
:102F900028784FF4616148436978C1EB011100EB77
:102FA0008100A978461812E0287802F0F9F94FF468
:102FB000616100FB01F9687802F0F2F9C0EB0010E2
:102FC00009EB8009A87802F0EBF909EB000631461D
:102FD000204602F088FB38B10420607400BF002056
:102FE000207400BF0120C3E72068406820F005007E
:102FF00021684860204602F099FA0746781C80B1A3
:10300000B7420ED20B4807443946204602F054FB23
:1030100038B10420607400BF0020207400BF01207C
:10302000A6E70120607400BF0020207400BF00BF2D
:103030009EE700008051010070B5044600250CB9E0
:10304000012070BD2068406820F0080021684860B9
:10305000FEF708FF054607E0FEF704FF401BB0F54A
:103060007A7F01D90320ECE72068406800F008006F
:103070000028F1D00020E4E77047704730B50246E1
:103080000B4600BF92F83C00012801D1022030BD60
:10309000012082F83C0000BF022082F83D00106849
:1030A00044681068816824F070041868044310684C
:1030B0004460144D1068A84213D0134D1068A84204
:1030C0000FD01068B0F1804F0BD0104D1068A8429F
:1030D00007D00F4D1068A84203D00E4D1068A842CB
:1030E00005D121F0800158680143106881600120FA
:1030F00082F83D0000BF002082F83C0000BF00BF06
:10310000C5E70000002C01400034014000040040ED
:1031100000080040000C004010B504460CB9012026
:1031200010BD94F83D0028B9002084F83C002046EA
:1031300000F026F8022084F83D00211D206802F0EE
:103140000BFD012084F8460000BF84F83E000121F9
:103150003F200155402001554120015500BF00BFCF
:10316000012084F8420043200155442001554520A8
:10317000015500BF012084F83D000020D0E7000089
:1031800008B5094A016891420DD100BF0749C969D4
:1031900041F00201054AD1611146C96901F00201FD
:1031A000009100BF00BF08BD0004004000100240B5
:1031B000014691F83D00012801D00120704702200E
:1031C00081F83D00164B0868984213D0154B0868EB
:1031D00098420FD00868B0F1804F0BD0124B0868AE
:1031E000984207D0114B0868984203D0104B0868EA
:1031F00098420CD10868806800F00702062A0CD0BB
:103200000868006840F001000B68186005E0086875
:10321000006840F001000B6818600020CEE7000055
:10322000002C014000340140000400400008004030
:10323000000C0040014691F83D00012801D001201A
:103240007047022081F83D000868C06840F0010026
:103250000B68D860164B0868984213D0154B086865
:1032600098420FD00868B0F1804F0BD0124B08681D
:10327000984207D0114B0868984203D0104B086859
:1032800098420CD10868806800F00702062A0CD02A
:103290000868006840F001000B68186005E00868E5
:1032A000006840F001000B6818600020C8E70000CB
:1032B000002C0140003401400004004000080040A0
:1032C000000C00402DE9F04104460D46002700BFE8
:1032D00094F83C00012802D10220BDE8F0810120D1
:1032E00084F83C0000BF022084F83D002068866816
:1032F00026F0770626F47F462068866028685028E6
:1033000033D00CDC202850D004DC00284BD010280F
:1033100051D149E0302849D040284CD139E06028CB
:103320002DD0702807D0B0F5805F03D0B0F5005FD6
:1033300041D10DE041E0D5E902136A68206802F04E
:103340006AFC2068866846F077062068866034E06C
:10335000D5E902136A68206802F05DFC2068806885
:1033600040F480402168886027E0EA686968206846
:1033700002F042FD5021206802F058FC1DE0EA688E
:103380006968206802F04BFD6021206802F04EFC65
:1033900013E0EA686968206802F02EFD4021206889
:1033A00002F044FC09E000BF00BF00BF29682068AC
:1033B00002F03CFC01E0012700BF00BF012084F8BF
:1033C0003D0000BF002084F83C0000BF384684E781
:1033D000704710B5044620680069C0F34000D8B1BA
:1033E0002068C068C0F34000B0B16FF002002168EF
:1033F0000861012020772068806900F0030018B17F
:103400002046FFF7E5FF05E0204600F0D9F820460A
:1034100000F0A4F90020207720680069C0F3800044
:10342000D8B12068C068C0F38000B0B16FF004006C
:1034300021680861022020772068806900F44070CC
:1034400018B12046FFF7C4FF05E0204600F0B8F8A9
:10345000204600F083F90020207720680069C0F33F
:10346000C000D8B12068C068C0F3C000B0B16FF030
:10347000080021680861042020772068C06900F0F6
:10348000030018B12046FFF7A3FF05E0204600F037
:1034900097F8204600F062F9002020772068006944
:1034A000C0F30010D8B12068C068C0F30010B0B1FC
:1034B0006FF0100021680861082020772068C0693B
:1034C00000F4407018B12046FFF782FF05E0204667
:1034D00000F076F8204600F041F9002020772068BF
:1034E000006900F0010058B12068C06800F00100D8
:1034F00030B16FF0010021680861204600F0AAF9A0
:1035000020680069C0F3C01058B12068C068C0F3DB
:10351000C01030B16FF08000216808612046FFF7CD
:10352000ABFD20680069C0F3801058B12068C06806
:10353000C0F3801030B16FF0400021680861204670
:1035400000F094F920680069C0F3401058B1206879
:10355000C068C0F3401030B16FF0200021680861EE
:103560002046FFF78AFD10BD10B586B00446002046
:1035700002900390049005900E492068884217D16C
:1035800000BF0D48806940F008000B49886108467B
:10359000806900F00800019000BF00BF4FF4307058
:1035A000029002200390059002A90448FEF7AAFAAF
:1035B00006B010BD0008004000100240000C0140A1
:1035C00070472DE9F04104460D461646002700BF1E
:1035D00094F83C00012802D10220BDE8F0810120CE
:1035E00084F83C0000BF36B1042E1BD0082E31D029
:1035F0000C2E5ED145E02946206802F021FB2068B0
:10360000806940F00800216888612068806920F0A6
:10361000040021688861206880692969084321685D
:10362000886148E02946206802F042FB20688069F2
:1036300040F40060216888612068806920F480601F
:103640002168886120688069296940EA0120216831
:10365000886130E02946206802F068FB2068C06974
:1036600040F008002168C8612068C06920F00400AB
:103670002168C8612068C069296908432168C86158
:1036800019E02946206802F08DFB2068C06940F4EB
:1036900000602168C8612068C06920F480602168EA
:1036A000C8612068C069296940EA01202168C861B1
:1036B00001E0012700BF00BF00BF002084F83C00EC
:1036C00000BF384689E710B504460CB9012010BD8B
:1036D00094F83D0028B9002084F83C00204600F012
:1036E00025F8022084F83D00211D206802F034FAFC
:1036F000012084F8460000BF84F83E0001213F20ED
:103700000155402001554120015500BF00BF012057
:1037100084F84200432001554420015545200155BD
:1037200000BF012084F83D000020D0E708B5094A19
:10373000016891420DD100BF0749C96941F00401F8
:10374000054AD1611146C96901F00401009100BF29
:1037500000BF08BD00080040001002407047000094
:1037600070B504460D4615B994F83E000BE0042DE3
:1037700002D13F20005D06E0082D02D14020005D0F
:1037800001E04120005D012801D0012070BD1DB97C
:10379000022084F83E000EE0042D03D102213F20D8
:1037A000015508E0082D03D102214020015502E017
:1037B00002214120015501222946206802F01AFA0F
:1037C0001F492068884203D01E492068884201D1E1
:1037D000012000E0002028B12068406C40F4004047
:1037E0002168486416492068884213D0154920682A
:1037F00088420FD02068B0F1804F0BD0124920686A
:10380000884207D011492068884203D010492068B7
:1038100088420CD12068806800F00706062E0CD084
:103820002068006840F001002168086005E0206819
:10383000006840F00100216808600020A6E7000051
:10384000002C01400034014000040040000800400A
:10385000000C004010B5044603492068884201D19D
:10386000FEF706FB10BD00000014004070477047D3
:10387000704700002DE9F84F04462068056820686D
:10388000C668206847694FF00009CA4605F00F096D
:10389000B9F1000F0AD105F0200038B106F0200080
:1038A00020B1204602F01FFBBDE8F88FB9F1000FF0
:1038B0007BD007F0010018B906F49070002874D08E
:1038C00005F0010030B106F4807018B1606C40F072
:1038D0000100606405F0040030B107F0010018B188
:1038E000606C40F00200606405F0020030B107F047
:1038F000010018B1606C40F00400606405F008003D
:1039000048B106F0200010B907F0010018B1606C52
:1039100040F008006064606C002845D005F020008D
:1039200028B106F0200010B1204602F0DCFA206831
:103930004069C0F3801A606C00F0080010B9BAF159
:10394000000F2CD0204602F088FA2068406900F071
:10395000400000B300BF00BF2168143151E8001FD0
:1039600021F040002168143141E80002002AF3D11F
:1039700000BFE06B50B17748E16B4863E06BFDF747
:1039800027FD88B1E06B416B88470DE02046FFF7CB
:103990006FFF09E009E02046FFF76AFF04E02046D8
:1039A000FFF766FF002060647EE7206B012877D177
:1039B00005F01000002873D006F010000028FAD09F
:1039C00000BF0020009020680068009020684068D8
:1039D000009000BF00BF2068406900F04000002850
:1039E0005FD0E06B006840681FFA80F8B8F1000F04
:1039F00055D0A08D404552DDA4F82E80E06B806943
:103A0000202843D000BF00BF21680C3151E8001FBF
:103A100021F4807021680C3141E80002002AF3D1C2
:103A200000BF00BF00BF2168143151E8001F21F022
:103A300001002168143141E80002002AF3D100BFDF
:103A400000BF00BF2168143151E8001F21F0400081
:103A50002168143141E80002002AF3D100BF202080
:103A600084F842000020206300BF00BF21680C31B1
:103A700051E8001F21F0100021680C3141E80002DC
:103A8000002AF3D100BFE06BFDF776FC02206063F3
:103A9000A08DE28D801A81B22046FFF7E8FE03E791
:103AA00042E0A08DE18D401A1FFA80F8E08DD0B37E
:103AB000B8F1000F37D000BF00BF21680C3151E8CA
:103AC000001F21F4907021680C3141E80002002AA7
:103AD000F3D100BF00BF00BF2168143151E8001FBF
:103AE00021F001002168143141E80002002AF3D1DD
:103AF00000BF202084F842000020206300BF00BFE8
:103B000021680C3151E8001F21F0100021680C31B0
:103B100041E80002002AF3D100BF02206063414661
:103B20002046FFF7A4FEBFE605F0800030B106F0A6
:103B3000800018B1204602F0F3FAB5E605F0400027
:103B400030B106F0400018B1204602F0BCF9ABE6F7
:103B500000BFA9E6475E000810B504460CB9012075
:103B600010BDA06900B100E000BF94F8410028B981
:103B7000002084F84000204600F02AF8242084F831
:103B800041002068C06820F400502168C8602046C9
:103B900002F028FA2068006920F49040216808614A
:103BA0002068406920F02A00216848612068C068C8
:103BB00040F400502168C86000206064202084F830
:103BC000410084F842000020606300BFC8E70000A5
:103BD00010B586B004460020029003900490059032
:103BE0001E492068884236D100BF1D48806940F4D4
:103BF00080401B4988610846806900F4804001903C
:103C000000BF00BF00BF0846806940F00400886123
:103C10000846806900F00400019000BF00BF48150D
:103C20000290022003900320059002A90D48FDF7A1
:103C300069FF4FF48060029000200390049002A975
:103C40000848FDF75FFF002205212520FEF7CAF98D
:103C50002520FEF7B7F906B010BD0000003801407E
:103C6000001002400008014070B504460D4616469B
:103C700094F8420020280BD105B10EB9012070BD87
:103C80000020206332462946204602F029FAF6E752
:103C90000220F4E77CB50446FE49206888427DD1C5
:103CA000FD480078202802D1FC48007850B1FA483D
:103CB0000078FB49F94A12788854F8480078401C8B
:103CC000F6490870F44800780A28E8D1F3480078EB
:103CD00002282BDBF1480078062827DC0222F04975
:103CE000F048FCF7D3FAF0A1EE48FCF7DBFA10B984
:103CF0000120EE4908700522E949EA48FCF7C6FAB6
:103D0000EBA1E848FCF7CEFA10B90120E7490870AA
:103D10000522E349E348FCF7B9FAE7A1E148FCF7DB
:103D2000C1FA002801D1E14908701EE30C22DC49E8
:103D3000DC48FCF7ABFAE2A1DA48FCF7B3FA00285A
:103D40007ED1D748807D202859D1D54890F82000D1
:103D500030384FF47A714843D14991F82110303905
:103D600001EBC10202EB011100EB8101CC4890F89C
:103D70002200303800EB800001EB4001C84890F889
:103D8000230030380844D2490880C54890F8230001
:103D90003038C34991F82210303900E0F2E201EBEB
:103DA000810100EB4100CB490880BD48407D30389F
:103DB000C9490880BA48007E3038B949C97D3039D0
:103DC00001EB810100EB4100C4490880B448C07E8A
:103DD0003038B349897E303901EB810100EB410075
:103DE000BF490880AE48807F3038AD49497F3039BF
:103DF00001EB810100EB4100BA4908805FE0A8486F
:103E000090F8210030384FF47A714843A44991F872
:103E10002210303901EBC10202EB011100EB8101EC
:103E20009F4890F82300303800EB800001EB400100
:103E30009B4890F8240030380844A549088000E0E9
:103E40005EE1974890F824003038954991F82310A6
:103E5000303901EB810100EB41009E490880904818
:103E6000807D30388E49497D303901EB810100EB8E
:103E70004100994908808A48407E30388849097E47
:103E8000303901EB810100EB4100944908808448FE
:103E9000007F30388249C97E303901EB810100EB67
:103EA00041008F4908807E48C07F30387C49897F37
:103EB000303901EB810100EB41008A4908808448D8
:103EC000008840F2E77188420BDA00F0FFFF102310
:103ED00085A20021084601F083F901208549087078
:103EE0003EE200208349087003226D490D3182486B
:103EF000FCF7CCF96A48407C4A280BD16848807CA2
:103F0000612807D16648C07C6E2803D101207B4917
:103F10000880AEE06248407C46280BD16048807C37
:103F2000652807D15E48C07C622803D1022073490E
:103F300008809EE05A48407C4D280BD15848807C30
:103F4000612807D15648C07C722803D103206B49F1
:103F500008808EE05248407C41280BD15048807C3C
:103F6000702807D14E48C07C722803D104206349D1
:103F700008807EE04A48407C4D280BD14848807C30
:103F8000612807D14648C07C792803D105205B49C8
:103F900008806EE04248407C4A280BD14048807C33
:103FA000752807D13E48C07C6E2803D106205349AE
:103FB00008805EE03A48407C4A280BD13848807C33
:103FC000752807D13648C07C6C2803D107204B499F
:103FD00008804EE03248407C41280BD13048807C3C
:103FE000752807D12E48C07C672803D10820434993
:103FF00008803EE02A48407C53280BD12848807C2A
:10400000652807D12648C07C702803D109203B4988
:1040100008802EE02248407C4F280BD12048807C2D
:10402000632807D11E48C07C742803D10A20334975
:1040300008801EE01A48407C4E280BD11848807C2E
:104040006F2807D11648C07C762803D10B202B4956
:1040500008800EE01248407C44280AD11048807C39
:10406000652806D10E48C07C632802D10C20234964
:1040700008801C4800781A490978184DCDE90010CD
:104080002B78154D2A781D4D2978124D287801F08E
:1040900073FA65E1003801400403002005030020A5
:1040A000F0030020F00400204F4B0000000300202C
:1040B00072656164790000004552524F5200000061
:1040C0002B434950534E545054494D450000000075
:1040D0001003002012030020160300201803002004
:1040E0001A0300201C0300205761697420525443B6
:1040F0002E2E2E00640300200C0300201403002049
:10410000A3A1A748FCF7CEF80028C2D1A5A1A848D2
:10411000FCF7AAF8A74908600846006800285AD0AA
:104120002522084601680A31A348FCF7AFF8A249E6
:10413000A2A002F0F1F8A4A19D48FCF795F89D49D2
:104140000860084600680028E9D008460068007A40
:104150004F2841D108460068407A4E283CD1084695
:104160000068007D30380968C97C303901EB810175
:1041700000EB4100964908808E480068807D303809
:104180008C490968497D303901EB810100EB410020
:104190009049088087480068007E30388549096862
:1041A000C97D303901EB810100EB41008A4908806B
:1041B0000B461A78874B1978854B187801F008FA66
:1041C00001208649087086490870102385A20621BF
:1041D000002001F005F8BEE076480068007A4F281C
:1041E00045D174480068407A462840D1714800683B
:1041F000807A46283BD16F480068407D30386D4951
:104200000968097D303901EB810100EB41007049FB
:10421000088068480068C07D303866490968897D33
:10422000303901EB810100EB41006A4908806148A7
:104230000068407E30385F490968097E303901EBFB
:10424000810100EB4100644908800B461A78614BFC
:1042500019785F4B187801F0BBF901205F490870AD
:10426000102360A20621002000F0BAFF73E051483D
:104270000068007A3038642148434E490968497A19
:10428000303901EB810100EB41005A49088049486F
:104290000068C07D412823D146480068007E4C2834
:1042A0001ED144480068407E4C2819D10846008839
:1042B000514908804F48008848804E4800888880CF
:1042C0004C4800884D49096848634A4800884B4972
:1042D00009688863474800884849096808643AE0E3
:1042E00034480068C07D4C280ED132480068007EFA
:1042F000312809D13F4800883F4908803D4800885F
:104300003E490968486326E02A480068C07D4C2879
:104310000ED128480068007E322809D1354800882F
:10432000354948803348008834490968886312E079
:1043300020480068C07D4C280DD11E480068007ED2
:10434000332808D12B4800882B49888029480088C9
:104350002A4909680864184A29A1324801F0DCFF9B
:104360004FF480710E48FBF774FF002003E000213A
:104370000F4A1154401C2C4909788842F7DB002071
:1043800029490870012229492948FFF76DFC7CBDA5
:104390002B4D515454535542524543560000000092
:1043A000F0040020726571756573745F69640000C4
:1043B000F003002008030020F0050020725F69640C
:1043C0003A25730D0A000000706F776572000000D7
:1043D0001E030020200300202203002026030020CB
:1043E0002703002020202020202020202020202003
:1043F000202000002403002028030020301D00207E
:104400003634383330633939303135353461353904
:1044100033333966646634315F32303233303630AC
:1044200039000000789900080503002004030020EB
:10443000781D00202DE9F84F04460E461746994690
:104440004FF0000A94F8410020284AD106B117B96C
:104450000120BDE8F88F00206064212084F841002D
:10446000FDF700FD8246A784E784A068B0F5805F71
:1044700004D1206910B90025B04602E035464FF05E
:1044800000081BE05346002280212046CDF8009012
:1044900001F076FE08B10320DBE745B9B8F800006B
:1044A000C0F308002168486008F1020803E028789A
:1044B000216848606D1CE08C401EE084E08C002880
:1044C000E0D15346002240212046CDF8009001F073
:1044D00057FE08B10320BCE7202084F841000020EB
:1044E000B7E70220B5E7704700BFFEE72DE9F04FC0
:1044F0008DB00446894692469B461798FCF757F9BB
:1045000005460E465846FCF752F907468846484687
:10451000FCF74DF9CDE90856CDE90A011698CDF81A
:1045200008A0CDE9047806900A98234604A2CDE9B4
:10453000000106A10E4801F0EFFE0DB0BDE8F08FBE
:10454000426173696344617461000000363438333A
:104550003063393930313535346135393333396683
:10456000646634315F323032333036303900000027
:104570009C98000810B5C0B000244FF47A70FDF785
:104580005BFA00BFB5E05E480078012879D15DA0F4
:10459000FCF7ACFB00F09AFC10235BA2002108465C
:1045A00000F01EFE5BA001F0B7FE4FF4E160FDF7E6
:1045B00043FA54A0FCF79AFB59A0FCF797FB00F0D4
:1045C00085FC102359A20021084600F009FE5AA3D9
:1045D0005CA25EA1684601F0AFFE6846FCF786FB70
:1045E00000F074FC10235EA20021084600F0F8FDE4
:1045F000102354A20221002000F0F2FD4FF47A7043
:10460000FDF71AFA5AA0FCF771FB00F05FFC1023CB
:104610005CA20021084600F0E3FD5D4B5DA266A1AF
:10462000684601F089FE6846FCF760FB00F04EFC2E
:1046300010236CA20021084600F0D2FD6DA27AA1E1
:10464000684601F079FE6846FCF750FB00F03EFC3E
:1046500010237BA20021084600F0C2FD7CA37EA2AD
:104660008AA1684601F068FE6846FCF73FFB00F04F
:104670002DFC10238BA20021084600F0B1FD45A2BD
:1046800000E01FE08AA1684601F056FE6846FCF78C
:104690002DFB00F01BFC102393A20021084600F024
:1046A0009FFD3CA293A1684601F046FE6846FCF7D8
:1046B0001DFB38A29BA1684601F03EFE6846FCF750
:1046C00015FB19E0092C0BD1A4A001F025FE00F088
:1046D000FDFB1023A8A20021084600F081FD0BE09D
:1046E000A9A001F019FE4FF47A70FDF7A5F9601C3E
:1046F000C4B20A2CFFF647AF00BF40B010BD0000A7
:104700000003002041540000506F776572204F4E27
:104710000000000041542B5253540D0A00000000C9
:1047200041542B43574D4F44453D310041542B4399
:10473000574D4F4445000000313335333939323855
:1047400036363800485541574549320041542B43CD
:10475000574A41503D222573222C22257322000006
:10476000434F4E4E45435420535349443A000000B2
:1047700041542B434950534E54504346473D312CEE
:104780003800000053455420474D542B380000009A
:10479000349900083634383330633939303135359F
:1047A0003461353933333966646634315F323032DF
:1047B000333036303900000041542B4D515454559C
:1047C0005345524346473D302C312C224E554C4CDC
:1047D000222C222573222C222573222C302C302CC3
:1047E0002222000041542B4D5154545553455243FD
:1047F0004647000036343833306339393031353587
:104800003461353933333966646634315F3230327E
:1048100033303630395F305F305F323032333036EC
:10482000303931320000000041542B4D5154544373
:104830004C49454E5449443D302C222573220000FA
:1048400041542B4D515454434C49454E5449440016
:104850003138383300000000333837303263306588
:1048600037392E696F742D6D717474732E636E2DCC
:104870006E6F7274682D342E6D7968756177656915
:10488000636C6F75642E636F6D00000041542B4D97
:10489000515454434F4E4E3D302C222573222C252B
:1048A000732C310041542B4D515454434F4E4E0004
:1048B00041542B4D5154545355423D302C22246FBA
:1048C000632F646576696365732F25732F7379731E
:1048D0002F70726F706572746965732F7265706F77
:1048E0007274222C3100000041542B4D515454530A
:1048F0005542000041542B4D5154545355423D30C4
:104900002C22246F632F646576696365732F25738A
:104910002F7379732F636F6D6D616E64732F232214
:104920002C31000041542B4D5154545355423D30CD
:104930002C22246F632F646576696365732F25735A
:104940002F7379732F636F6D6D616E64732F726552
:1049500073706F6E73652F23222C3100436F6E6E60
:104960006563746564204553503031732046616936
:104970006C210D0A00000000434F4E4E4543544544
:1049800044204641494C440041540D0A00000000B7
:1049900010B5012211030A48FDF75EFA01229102C7
:1049A0000748FDF759FA00224FF480610448FDF7EB
:1049B00053FA00224FF480510148FDF74DFA10BD23
:1049C0000010014010B5012211030748FDF744FA19
:1049D00000224FF480610448FDF73EFA0122910263
:1049E0000148FDF739FA10BD0010014010B5012251
:1049F00011030548FDF730FA00224FF480510248B8
:104A0000FDF72AFA10BD00000010014070B5054600
:104A10000B4800780B4908700220094908700A48C1
:104A2000006804F0AFF90446012C07D134B1000747
:104A300006490860BFF34F8FBFF36F8F70BD000052
:104A400026030020370300204803002004ED00E087
:104A500070B505460B4800780B49087003200949DA
:104A600008700A48006804F08DF90446012C07D14B
:104A700034B1000706490860BFF34F8FBFF36F8F53
:104A800070BD0000260300203703002048030020EB
:104A900004ED00E00EB50020009001900290174850
:104AA000174908608115164881600021017301755E
:104AB0004FF40021C16100201149486002211048D3
:104AC0000161FCF791FA08B1FCF781F90020009030
:104AD000012001900520029069460948FCF7D0F9B1
:104AE00008B1FCF774F9022000900190694604486F
:104AF000FCF7C6F908B1FCF76AF90EBD00240140C5
:104B0000601C002008B500BF0A48406940F0010061
:104B1000084948610846406900F00100009000BF64
:104B200000BF002205210B20FDF75CFA0B20FDF7EA
:104B300049FA08BD0010024000B59DB000201B904E
:104B40001C9001211BA802F00EF93149086031497F
:104B500003C9CDE919010022114619A802F05EF936
:104B60002D4908602B49083103C9CDE917010022FE
:104B7000114617A802F052F928490860254910315A
:104B800003C9CDE915010022012115A802F046F95B
:104B900023490860C8212048006802F065F91E48D2
:104BA000006802F095F9C8211C48006802F05CF921
:104BB0001A48006802F08CF941F288311848006800
:104BC00002F052F91C22134918310EA8FBF728FBFA
:104BD00000210EA802F0ECF8124908601C220D49D1
:104BE000343107A8FBF71CFB002107A802F0E0F80E
:104BF0000D4908601C22074950316846FBF710FB3D
:104C00000021684602F0D4F8084908601DB000BDD4
:104C100058030020F49700084C03002050030020A4
:104C200054030020400300204403002048030020D8
:104C300000B585B00020019002900390049000BF61
:104C40002D48806940F010002B4988610846806932
:104C500000F01000009000BF00BF00BF0846806950
:104C600040F0200088610846806900F02000009034
:104C700000BF00BF00BF0846806940F004008861A3
:104C80000846806900F00400009000BF00BF00BF2C
:104C90000846806940F0080088610846806900F095
:104CA0000800009000BF00BF00224FF4A841134845
:104CB000FDF7D2F84FF4A8400190012002900020A7
:104CC00003900220049001A90C48FCF71BFF4FF44D
:104CD000C04001900A4802900020039001A90948B1
:104CE000FCF710FF002205212820FDF77BF9282082
:104CF000FDF768F905B000BD00100240001001404A
:104D000000001110000C01401CB500200190009023
:104D100019481A4908604FF0FF3048604FF480711D
:104D200016488160FDF790FF08B1FCF750F8152098
:104D30008DF8040055208DF805008DF8060001223D
:104D400001A90E48FEF70AF908B1FCF740F8012066
:104D50008DF800008DF8010029208DF80200012057
:104D60008DF80300012269460448FEF77BF808B17C
:104D7000FCF72DF81CBD000000280040D41C0020CA
:104D800000B587B000200390049005900690019034
:104D900002901548154908604720486000211348D3
:104DA00081600A21C1600021016180218161FEF7DB
:104DB000B3F908B1FCF70BF84FF48050039003A946
:104DC0000A48FEF77FFA08B1FCF701F820200190AD
:104DD0000020029001A90548FEF750F908B1FBF741
:104DE000F6FF07B000BD000000040040E81C0020F2
:104DF00000B589B00020079008901C216846FBF799
:104E000028FA20482049086040F2CF20486000215D
:104E10001D48816040F2E731C1600021016181617C
:104E2000FEF751FC08B1FBF7D2FF00200790089075
:104E300007A91548FEF722F908B1FBF7C8FF602063
:104E400000900020019002900490002269460E48D4
:104E5000FEF7B7FB08B1FBF7BAFF042269460A4820
:104E6000FEF7AFFB08B1FBF7B2FF0C22694606481C
:104E7000FEF7A7FB08B1FBF7AAFF0348FEF774FB98
:104E800009B000BD00080040301D002010B50B48DF
:104E90000B4908604FF4E130486000210848816008
:104EA000C16001610C21416100218161C161FEF796
:104EB00053FE08B1FBF78BFF10BD00000038014026
:104EC000781D002000BFFEE700BFFEE770B500249C
:104ED00018E004F1B000002100F02FFA002108468C
:104EE00000F02BFA0021102000F027FA002505E041
:104EF0000121002000F021FA681CC5B2802DF7DBEB
:104F0000601CC4B2082CE4DB70BD10B54FF44870CF
:104F1000FCF792FD0021AE2000F00FFA00210846B8
:104F200000F00BFA0021102000F007FA00214020C9
:104F300000F003FA0021B02000F0FFF900218120E9
:104F400000F0FBF90021FF2000F0F7F90021A1207B
:104F500000F0F3F90021A62000F0EFF90021A820CD
:104F600000F0EBF900213F2000F0E7F90021C82014
:104F700000F0E3F90021D32000F0DFF9002108461A
:104F800000F0DBF90021D52000F0D7F900218020C6
:104F900000F0D3F90021D82000F0CFF9002105203E
:104FA00000F0CBF90021D92000F0C7F90021F12051
:104FB00000F0C3F90021DA2000F0BFF9002112202F
:104FC00000F0BBF90021DB2000F0B7F90021302010
:104FD00000F0B3F900218D2000F0AFF9002114207A
:104FE00000F0ABF90021AF2000F0A7F9FFF76EFF4A
:104FF00010BD70B504460D4605F1B000002100F06B
:105000009CF9102141EA1410002100F096F904F0F7
:105010000F00002100F091F970BD00002DE9F04172
:1050200080460E461546002731464046FFF7E1FF11
:1050300000240AE0124A02EB8511085D012100F00C
:105040007CF9781CC7B2601CC4B2102CF2DB701C57
:10505000C1B24046FFF7CDFF00240CE06900491CB7
:10506000074A02EB4111085D012100F066F9781C46
:10507000C7B2601CC4B2102CF0DBBDE8F0810000A8
:10508000000000202DE9F0410546884616461F46DF
:10509000002400BF09E0A119CAB205EB0411C8B28F
:1050A0004146FFF7BBFF601CC4B2BC42F3DBBDE866
:1050B000F08100002DE9F04707460E4690469946DC
:1050C00000250024A8F12000C5B27F2F02DD0027B3
:1050D000B01CC6B2B9F1100F24D131463846FFF7E3
:1050E00088FF002408E004EB0511194A505C0121F7
:1050F00000F023F9601CC4B2082CF4DB701CC1B2B0
:105100003846FFF776FF002409E004EB051108316B
:105110000F4A505C012100F010F9601CC4B2082C49
:10512000F3DB12E031463846FFF763FF00240AE064
:1051300005EB4501074A02EB4101085D012100F042
:10514000FCF8601CC4B2062CF2DBBDE8F08700005E
:1051500004920008DC8F00082DE9FF5F07469146A6
:105160001E460E9D4FF0000A002435E0301B401E05
:10517000C1B20A2001F0DBFDB9FBF0F00A21B0FB5F
:10518000F1F201FB1208BAF1000F14D1701EA04217
:1051900011DDB8F1000F0CD1AB4605EBDB71491006
:1051A00001FB0471C8B22B4620220199FFF782FF50
:1051B00010E04FF0010AAB4605EBDB71491001FB33
:1051C0000471C8B208F13001CAB22B460199FFF749
:1051D00071FF00BF601CC4B2B442C7DBBDE8FF9FD3
:1051E0002DE9F04104460F461546984600260FE08B
:1051F000AA5D434639462046FFF75CFF04F10800EC
:10520000C4B2782C02DD0024B81CC7B2701CC6B230
:10521000A85D0028ECD1BDE8F0812DE9FF4F87B0F3
:10522000074691461E46DDE914A54846FBF7A6FA57
:105230000590002435E0301B401EC1B20A2001F069
:1052400076FD0599B1FBF0F00A21B0FBF1F201FB0C
:1052500012080698A0B9701EA04211DDB8F1000F27
:105260000CD105EBD571491001FB0471C8B22B4676
:10527000202204950899FFF71DFF10E001200690F9
:1052800005EBD571491001FB0471C8B208F130017A
:10529000CAB22B4604950899FFF70CFF00BF601CAB
:1052A000C4B2B442C7DB05EBD571491001FB0671EE
:1052B000C8B22B462E2204950899FFF7FBFE5146F3
:1052C0000A2001F034FD0190FBF753FA0390059892
:1052D000FBF746FA49460190FBF747F8029003991D
:1052E000FBF746F80490FBF749FA834600241FE0D9
:1052F000AAEB0400401EC1B20A2001F018FDBBFB5E
:10530000F0F00A21B0FBF1F201FB120805EBD571B8
:105310004910A31901FB0371491DC8B208F13001FE
:10532000CAB22B4604950899FFF7C4FE601CC4B2AC
:105330005445DDDB0BB0BDE8F08F70B504460D467B
:105340001DB1E0B200F0D2FF02E0E0B200F0B8FF21
:1053500070BD70B5FBF7EAFC044600F065FF05463A
:105360002146FBF705F870BD08B508490968C9086A
:105370004FF47A72B1FBF2F14143009100BF00BFDC
:1053800000994A1E00920029F9D108BD740300203B
:1053900010B50248FDF78EFB10BD0000D41C0020A4
:1053A000014600BF080900EB8000420001F00F0039
:1053B0001044C0B270470146002203E0521CA1F124
:1053C0000A00C1B20A29F9D2100741EA10607047F9
:1053D0002DE9F04706468846002700240025A1460F
:1053E000F77B747BB57B00BF40E0012C0BD0032C16
:1053F00009D0052C07D0072C05D0082C03D00A2C87
:1054000001D00C2C0CD11F2D01D26D1C2CE00C2CCA
:1054100002D0641C012527E0012401257F1C23E024
:10542000042C05D0062C03D0092C01D00B2C06D15E
:105430001E2D01D26D1C17E0641C012514E0022C06
:1054400012D11C2D01D26D1C0EE01C2D08D1B8B25A
:1054500000F053F808B16D1C06E0641C012503E060
:105460001D2D01D1641C012509F10109C145BCD3E1
:10547000F7737473B573EAB2E1B2384600F0DAF844
:105480003073BDE8F08770B504460025FCF7EAFCF0
:10549000054607E0FCF7E6FC401BB0F57A7F01D932
:1054A000032070BD2068406800F020000028F1D083
:1054B0002068406840F01000216848600020F0E754
:1054C00070B5044600252068406820F0100021686F
:1054D0004860FCF7C7FC054607E0FCF7C3FC401B2F
:1054E000B0F57A7F01D9032070BD2068406800F0D4
:1054F00020000028F1D00020F6E7014601F003006B
:1055000008B1002070476420B1FBF0F200FB1210DC
:1055100008B10120F6E74FF4C870B1FBF0F200FBD0
:10552000121008B90120EDE70020EBE70146002248
:1055300000230868006A82B20868406A83B243EABE
:105540000240704730B501460022002300240020AD
:105550000D68AD69AAB20D68ED69ACB20D68AD69B0
:10556000ABB29A4205D00D68ED6963F31F4528463A
:1055700001E044EA024030BD2DE9FC4704460D46F7
:1055800016461F46DDE90A890020019000908DF83B
:1055900004708DF805808DF80690002201A90B4853
:1055A000FDF7DCFC08B1FBF712FC8DF801508DF81B
:1055B00002608DF80340002269460448FDF752FC62
:1055C00008B1FBF704FCBDE8FC870000D41C0020F8
:1055D0007CB504460D4616460020009001908DF8DB
:1055E00000408DF801508DF80260002269460348A2
:1055F000FDF7B2FB08B1FBF7EAFB7CBDD41C002031
:1056000010B506E005A000F087FE4FF47A70FCF7B5
:1056100013FA074800780028F4D110BD41542B43F9
:105620004950534E545054494D453F0D0A00000017
:1056300064030020F0B504460B460021002504F564
:10564000FA61032B1BD2C3EBC30000EB0310092646
:10565000B0FBF6F01044001D4618481E06EB9006FD
:105660006427B0FBF7F0361A481EBF00B0FBF7F016
:1056700030440726B0FBF6F706FB17051AE0C3EB2C
:10568000C30000EB03100926B0FBF6F01044001D28
:10569000084400EB91006426B1FBF6F6801B4FF442
:1056A000C876B1FBF6F63044801E0726B0FBF6F74D
:1056B00006FB1705E8B2F0BD70B504460D4600269E
:1056C0002046FFF7E0FE08B101260AE0280C216819
:1056D0000862A8B2216848622046FFF7F1FE00B1D7
:1056E0000126304670BD70B504460D4600262046A2
:1056F000FFF7C9FE08B101260AE0280C216888617D
:10570000A8B22168C8612046FFF7DAFE00B1012681
:10571000304670BD00BF0248006801F078FBFAE730
:10572000400300201CB500BF2D48007802281FD17F
:1057300010232CA206210020FFF752FD03231A4656
:1057400006211020FFF79EFC00F06EFD044610209D
:1057500002210B462246CDE9001006214020FFF72A
:105760005CFD1023562206216620FFF7A3FC22E0F1
:105770001B48007803281ED110231AA206210020FE
:10578000FFF72EFD0323062211461020FFF77AFCB7
:10579000FBF7CCFA0446102002210B462246CDE945
:1057A000001006214020FFF738FD1023412206217A
:1057B0006620FFF77FFC4FF4FA6001F0C3FA0D4852
:1057C00000780749087000200A490870102305A2D4
:1057D0000621FFF705FD0848006801F018FBA3E764
:1057E00026030020202020202020202020202020F0
:1057F00020200000370300204803002088B000BFAD
:105800004FF480419548FCF71DFB002294499548D0
:10581000FDF797F9002294499248FDF769F99048FD
:1058200000780A2190FBF1F03030C0B28DF81400FE
:105830008B48007890FBF1F201FB12003030C0B2CF
:105840008DF815003A208DF816008548407890FBB9
:10585000F1F03030C0B28DF817008148407890FBED
:10586000F1F201FB12003030C0B28DF818003A207E
:105870008DF819007A48807890FBF1F03030C0B292
:105880008DF81A007648807890FBF1F201FB120047
:105890003030C0B28DF81B0000208DF81C001023A2
:1058A00005AA0221FFF79CFC102000906E48C078EA
:1058B00000F5FA62042300210846FFF74DFC0022A0
:1058C00011462020FFF7AAFB674840780A2816DA1D
:1058D000102001230022114600903020FFF73CFCED
:1058E0001020009060484278012300213820FFF703
:1058F00033FC012200214020FFF790FB0DE0102037
:10590000009059484278022300213020FFF724FC00
:10591000012200214020FFF781FB534880780A28AC
:1059200016DA102001230022114600905020FFF7C4
:1059300013FC102000904C4882780123002158204D
:10594000FFF70AFC022200216020FFF767FB0DE051
:105950001020009044488278022300215020FFF755
:10596000FBFB022200216020FFF758FB10233F4A77
:1059700002215020FFF734FC3D480078C8B90323CA
:10598000092206211020FFF77DFBFFF7E2FC044609
:10599000102002210B462246CDE9001006214020AE
:1059A000FFF73BFC1023572206216620FFF782FBFE
:1059B0004EE02F48007801284AD12E4800880A215D
:1059C00090FBF1F03030C0B28DF808002948008813
:1059D00090FBF1F201FB12003030C0B28DF80900EB
:1059E0003A208DF80A002448008890FBF1F030300E
:1059F000C0B28DF80B002048008890FBF1F201FB4B
:105A000012003030C0B28DF80C003A208DF80D0035
:105A10001A48008890FBF1F03030C0B28DF80E00CB
:105A20001648008890FBF1F201FB12003030C0B242
:105A30008DF80F0000208DF81000182310A2062109
:105A4000FFF7CEFB182302AA06212020FFF7C8FB90
:105A50004FF47A7001F076F9D2E6000000100140B0
:105A600034030020D41C0020300300200C0300204D
:105A7000260300201E030020200300202203002014
:105A8000534554200000000010B500BF502080F3A3
:105A90001188BFF34F8FBFF36F8F00BF02F09CFFE1
:105AA00018B14FF080500449086000BF002080F317
:105AB000118800BF10BD000004ED00E000B595B0F6
:105AC00028210BA8FAF7C5FB142106A8FAF7C1FB99
:105AD00018216846FAF7BDFB01200B9000040C90DA
